:1000000045C000004BC0000049C0000047C00000D0
:1000100045C0000043C0000041C000003FC00000D8
:100020003DC000003BC0000039C0000037C00000E8
:1000300035C0000033C0000031C000002FC00000F8
:100040002DC000002BC0000029C0000027C0000008
:1000500025C0000023C0000021C000001FC0000018
:100060001DC000001BC0000019C0000017C0000028
:1000700015C0000013C0000011C000000FC0000038
:100080000DC000000BC0000009C0000011241FBEFD
:10009000CFEFD0E1DEBFCDBF36D04BC0B1CF98B3EC
:1000A000987F98BB97B3976097BB8230B1F028F4E4
:1000B000882349F0813059F008958430D1F098F0C8
:1000C0008530D9F00895BA98C09AC39A0895BA981D
:1000D000C19A88B3866188BB0895B898C19A88B3DD
:1000E000866188BB0895B898C29A88B3826388BB3A
:1000F0000895B998C09AC39A0895B998C29A88B3D6
:10010000826388BB089588B3887F88BB87B3876084
:1001100087BBC0E08C2FC3DF2FE38DE093E021503D
:1001200080409040E1F700C00000CF5FC63091F7FB
:06013000F0CFF894FFCFB0
:00000001FF
