S01200004F7064726163687420312E737265638C
S113000045C0000072C00000B9C000005CC0000020
S11300105AC0000058C0000056C0000054C0000080
S113002052C0000050C000004EC000004CC0000090
S11300304AC0000048C0000046C0000044C00000A0
S113004042C0000040C000003EC000003CC00000B0
S11300503AC0000038C0000036C0000034C00000C0
S113006032C0000030C000002EC000002CC00000D0
S11300702AC0000028C0000026C0000024C00000E0
S113008022C0000020C000001EC0000011241FBEBA
S1130090CFEFD0E1DEBFCDBF11E0A0E0B1E0E2EDF3
S11300A0F2E000E00BBF02C007900D92A031B1074F
S11300B0D9F721E0A0E1B1E001C01D92A431B2075B
S11300C0E1F7F1D004C19CCF181619066CF420E0B6
S11300D030E0EFECF7E03197F1F700C000002F5F5C
S11300E03F4F82179307A9F708951F920F920FB6F7
S11300F00F9211240BB60F922F933F938F939F93DC
S1130100EF93FF93809110019091110107974CF4A4
S113011080911001909111010196909311018093A7
S11301201001209110013091110181E090E002C092
S1130130880F991F2A95E2F78BBB80911201909149
S113014013018F3091052CF4019690931301809341
S11301501201E0911201F0911301E050FF4F8081F0
S113016085BBFF91EF919F918F913F912F910F90BC
S11301700BBE0F900FBE0F901F9018951F920F92F9
S11301800FB60F9211240BB60F922F933F938F93B8
S11301909F93EF93FF938091100190911101992304
S11301A04CF08091100190911101019790931101ED
S11301B080931001209110013091110181E090E0B1
S11301C002C0880F991F2A95E2F78BBB8091120118
S11301D0909113019C01215031092E30310520F4F6
S11301E03093130120931201E0911201F091130155
S11301F0E050FF4F808185BBFF91EF919F918F91DC
S11302003F912F910F900BBE0F900FBE0F901F9038
S113021018950F931F93CF93DF93C1E0C5BB88EC70
S113022090E052DF82E085BB88EC90E04DDF84E013
S113023085BB88EC90E048DF08E005BB88EC90E0E3
S113024043DF80E185BB88EC90E03EDF80E285BB44
S113025088EC90E039DFC5BB88EC90E035DFC2E282
S1130260C5BB88EC90E030DFD0E4D5BB88EC90E0EF
S11302702BDF14E115BB88EC90E026DF05BB88EC8E
S113028090E022DF15BB88EC90E01EDFD5BB88EC44
S113029090E01ADFC5BB88EC90E016DFDF91CF91C8
S11302A01F910F9108958FEF8ABB91E09BBB90E162
S11302B095BB84BB80EF81BBEAE6F0E080818B6074
S11302C0808389B7836089BF7894A3DFFECFF894D5
S10502D0FFCF5A
S11302D23F065B4F666D7D077F6F777C395E79FFE2
S9030000FC
